:100E690054617469616E61004B617A616B65766981
:100E7900636800496E76616C696420496E707574A7
:100E8900004572726F723A20646976206279203067
:010E99000058
:0E0F330002170000021900000115000116004F
:100F01007F80120F427F38120F427F01120F427F02
:090F11000C120F427F06020F4290
:0A0F42008FA0C2B0120E9AC2B222B4
:100EE600AE12AF137C00120DE38E1C8F1DEF243063
:010EF600FFFC
:0A0EF7008FA0D2B0120E9AC2B222F0
:060E9A00C2B1D2B27F14C8
:100EA000E4FDFCEFFBC3ED9BEC94005015E4FBFA72
:100EB0000BBB00010ABA04F8BBFBF50DBD00010C29
:020EC00080E1CF
:010EC200220D
:100EC3008B128A138914AB12AA13A914120DB8FF3B
:100ED3006010120EF774012514F514E43513F5139D
:030EE30080E42286
:100E38007590F0120F017F85120F427BFF7A0E79B1
:100E480069120EC37FC3120F427BFF7A0E797112AB
:100E58000EC37FC8120F1A7F01120F4212080080BA
:010E6800FB8E
:10080000E51660277F01120F427BFF7A0E797C127A
:100810000EC37FC8120F1AE4F5167F01120F42E4CF
:10082000F519F51AF517F518F51522C290D293D2DD
:1008300092D29120943C7F20120F1A2094347F375B
:10084000120EF7E5157015AE17AF18FC7D0A120DE4
:10085000D1EF2407F518E43EF51780DFAE19AF1A83
:100860007C007D0A120DD1EF2407F51AE43EF5193C
:1008700080C920953C7F20120F1A2095347F3812B2
:100880000EF7E5157015AE17AF18FC7D0A120DD1E5
:10089000EF2408F518E43EF51780DFAE19AF1A7C97
:1008A000007D0A120DD1EF2408F51AE43EF51980F7
:1008B000C920963C7F20120F1A2096347F39120EE1
:1008C000F7E5157015AE17AF18FC7D0A120DD1EFC4
:1008D0002409F518E43EF51780DFAE19AF1A7C0045
:1008E0007D0A120DD1EF2409F51AE43EF51980C9ED
:1008F00020971F7F20120F1A209717E515B40105C6
:10090000751601800D7515017F2F120EF7751B2FBF
:1009100080E6C291D293D292D29020943C7F201252
:100920000F1A2094347F34120EF7E5157015AE17A8
:10093000AF18FC7D0A120DD1EF2404F518E43EF542
:100940001780DFAE19AF1A7C007D0A120DD1EF249B
:1009500004F51AE43EF51980C920953C7F20120F5A
:100960001A2095347F35120EF7E5157015AE17AFC6
:1009700018FC7D0A120DD1EF2405F518E43EF51799
:1009800080DFAE19AF1A7C007D0A120DD1EF24056D
:10099000F51AE43EF51980C920963C7F20120F1A03
:1009A0002096347F36120EF7E5157015AE17AF1886
:1009B000FC7D0A120DD1EF2406F518E43EF51780F0
:1009C000DFAE19AF1A7C007D0A120DD1EF2406F5B7
:1009D0001AE43EF51980C920971F7F20120F1A20B4
:1009E0009717E515B40105751601800D7515017F82
:1009F00078120EF7751B7880E6C292D293D290D20D
:100A00009120943C7F20120F1A2094347F31120ED3
:100A1000F7E5157015AE17AF18FC7D0A120DD1EF72
:100A20002401F518E43EF51780DFAE19AF1A7C00FB
:100A30007D0A120DD1EF2401F51AE43EF51980C9A3
:100A400020953C7F20120F1A2095347F32120EF72A
:100A5000E5157015AE17AF18FC7D0A120DD1EF2405
:100A600002F518E43EF51780DFAE19AF1A7C007D61
:100A70000A120DD1EF2402F51AE43EF51980C920BF
:100A8000963C7F20120F1A2096347F33120EF7E522
:100A9000157015AE17AF18FC7D0A120DD1EF2403A7
:100AA000F518E43EF51780DFAE19AF1A7C007D0A19
:100AB000120DD1EF2403F51AE43EF51980C92097F1
:100AC0001F7F20120F1A209717E515B40105751620
:100AD00001800D7515017F2D120EF7751B2D80E617
:100AE000C293D290D292D29120941A7F20120F1AE0
:100AF0002094127F01120F42E4F519F51AF517F54B
:100B000018F51580EB2095327F20120F1A20952AB8
:100B10007F30120EF7E5157010AE17AF18FC7D0A86
:100B2000120DD18E178F1880E4AE19AF1A7C007D9C
:100B30000A120DD18E198F1A80D32096127F20129F
:100B40000F1A20960A7F3D120EF7120B7180F320C8
:100B5000971E7F20120F1A209716E515B401047511
:100B60001601227515017F2B120EF7751B2B80E7DE
:010B70002262
:100F1A00E4FEEEC39F5011E4FDFC0DBD00010CBCC4
:080F2A0002F8BDBCF50E80EADF
:010F3200229C
:100B71007FC0120F42E51BB42B0BE518251AFFE5C8
:100B8100173519802AE51BB42D29D3E518951AE5E7
:100B9100179519400BE518951AFFE5179519800F60
:100BA1007F2D120EF7C3E51A9518FFE5199517FE6B
:100BB100020C59E51B642F6003020C49E51A451923
:020BC10060765C
:100BC300AC19AD1AAE17AF18120DE38E088F09AC2E
:100BD30019AD1AAE17AF18120DE38C0A8D0BAE0ABE
:100BE300AF0B7C007D0A120DD1AA06AB07AC19AD81
:100BF3001A120DE38E0C8F0DAC19AD1AAF03AE02B2
:100C0300120DE38C0E8D0FAE0EAF0F7C007D0A121A
:100C13000DD1AC19AD1A120DE38E108F11AF09AEC1
:100C230008120C737F2E120EF7AF0DAE0C120C735D
:040C3300AF11AE103F
:100C370080207F01120F427BFF7A0E798A120EC342
:100C47008013E51BB4780EAC19AD1AAE17AF1812A6
:100C57000DD1120C737FBB120F1AE4F515F519F5B8
:0C0C67001AF517F518F51B7F01020F426B
:100C73008E128F13D3E513940FE512942740187C3B
:100C8300277D10120EECAE12AF137C277D10120DD0
:100C9300E38C128D138015D3E51394E7E5129403C7
:100CA3004026E513940FE5129427501CAE12AF13A0
:100CB3007C037DE8120EECAE12AF137C037DE812C9
:100CC3000DE38C128D138015D3E5139463E5129411
:100CD300004020E51394E7E512940350167D641257
:100CE3000EE6AE12AF137C007D64120DE38C128D01
:100CF300138015D3E5139409E51294004022E513FC
:100D03009463E512940050187D0A120EE6AE12AFFA
:100D1300137C007D0A120DE38C1C8D1DE51D8002E2
:090D2300E5132430FF120EF72243
:03000000020D2CC2
:0C0D2C00787FE4F6D8FD75811D020D7380
:100DB800BB010689828A83E0225002E722BBFE0239
:090DC800E32289828A83E493226C
:100DD100EF8DF0A4A8F0CF8CF0A428CE8DF0A42E36
:020DE100FE22F0
:100DE300BC000BBE0029EF8DF084FFADF022E4CCF4
:100DF300F875F008EF2FFFEE33FEEC33FCEE9DECBD
:100E0300984005FCEE9DFE0FD5F0E9E4CEFD22ED02
:100E1300F8F5F0EE8420D21CFEADF075F008EF2F4C
:100E2300FFED33FD4007985006D5F0F222C398FD3D
:050E33000FD5F0EA22DA
:100D3800020E38E493A3F8E493A34003F68001F28B
:100D480008DFF48029E493A3F85407240CC8C333BC
:100D5800C4540F4420C8834004F456800146F6DF8B
:100D6800E4800B0102040810204080900F33E47ED9
:100D7800019360BCA3FF543F30E509541FFEE49380
:100D8800A360010ECF54C025E060A840B8E493A347
:100D9800FAE493A3F8E493A3C8C582C8CAC583CA72
:100DA800F0A3C8C582C8CAC583CADFE9DEE780BE2A
:010F410000AF
:00000001FF
