:1011E1004572726F723A204469762042792030004C
:1011F1004572726F723A204F766572666C6F770036
:10120100496E76616C696420496E70757400546131
:101211007469616E61004B617A616B6576696368BF
:10122100000000000000003738392F34353678319E
:0712310032332D43303D2B49
:101309000236000002380000013300013A000134BE
:04131900000135009A
:1012D9007F8012131E7F3812131E7F0112131E7F87
:0912E9000C12131E7F0602131EF5
:0A131E008FA0C2B0121264C2B22206
:0A1328008FA0D2B0121264C2B222EC
:06126400C2B1D2B27F14FA
:10126A00E4FDFCEFFBC3ED9BEC94005015E4FBFAA4
:10127A000BBB00010ABA04F8BBFBF50DBD00010C5B
:02128A0080E101
:01128C00223F
:06128D007BFF7A127901DB
:101293008B228A238924AB22AA23A924120CDDFFE3
:1012A300601012132874012524F524E43523F52353
:0312B30080E422B2
:1012B600E4FDFCEFFBC3ED9BEC94005015E4FBFA58
:1012C6000BBB00010ABA02F8BBBCF50DBD00010C50
:0212D60080E1B5
:0112D80022F3
:04117A008E2A8F2BFF
:10117E00782C7C007D007BFF7A1279227E007F0620
:10118E00120CB7E4F532D3E52B9400E52A94004017
:10119E002AAE2AAF2B7C007D0A120D08ED2430FFFB
:1011AE00AE320532742C2EF8A607AE2AAF2B7C0079
:1011BE007D0A120D088E2A8F2B80CB1532C3E53295
:1011CE0064809480400C742C2532F8E6FF121328AC
:0211DE0080E9A6
:0111E00022EC
:08110F008F258E248D238C2214
:10111700120B668E268F27AC26AD27EC120B2DA857
:1011270004A905AA06AB07AF25AE24AD23AC22124E
:101137000803E4FBFA79C878421208F8120B668EA6
:10114700288F29AF27AE2612117A7F2E121328AEC9
:1011570028AF297C007D0A120D5DEF2430FF1213A2
:1011670028AE28AF297C007D0A120D5DED2430FFE3
:0311770002132838
:1012F2007F0112131EE4F538F539F536F537F53569
:07130200F534F53AF5332242
:100DEB00E4F521F520F51FF51E7FC012131EE53A21
:100DFB00B42B26AC38AD39E4120B2DC004C005C0A2
:100E0B0006C007AC36AD37E4120B2DD003D002D0A1
:100E1B0001D000120807020EA7E53AB42D25AC3815
:100E2B00AD39E4120B2DC004C005C006C007AC36AB
:100E3B00AD37E4120B2DD003D002D001D000120835
:100E4B00038059E53AB47825AC38AD39E4120B2D53
:100E5B00C004C005C006C007AC36AD37E4120B2D7D
:100E6B00D003D002D001D0001208F8802FE53A64ED
:100E7B002F703BE5394538602DAC38AD39E4120B9A
:100E8B002DC004C005C006C007AC36AD37E4120B4D
:100E9B002DD003D002D001D000120A018F218E2059
:100EAB008D1F8C1E80087BFF7A1179E1801D7F00DE
:100EBB007EFF7D7F7C47AB21AA20A91FA81E120AAB
:100ECB009E601340117BFF7A1179F11212937FC848
:100EDB001212B60212F2E4FFFEFDFCAB21AA20A90E
:100EEB001FA81E120A9E50187F2D121328AF21AE79
:100EFB0020AD1FAC1E120B178F218E208D1F8C1E49
:0E0F0B00AF21AE20AD1FAC1E12110F753501C7
:010F190022B5
:100F1A008F1AE51AB44303020FF6E535600312127D
:0F0F2A00F2E51AC394304078E51AD39439507128
:100F3900E5337B0060067A00793880047A007936D7
:100F49008B1B8A1C891D120D93FFAEF0D39499EE69
:100F59009419500DBE1920BF991DE51AD394354037
:100F6900167F0112131E7BFF7A1179F11212937FFA
:100F7900C81212B6020FF6AF1A121328AB1BAA1C1D
:100F8900A91D120D93FFAEF07C007D0A120CF6E547
:100F99001A24D0FDEC34FFCD2FFFED3E8FF0020D6A
:010FA900BE89
:100FAA00E51A642B6012E51A642D600CE51A647860
:100FBA006006E51A642F701FE533600F7F01121374
:100FCA001E12128D7FC81212B68021AF1A12132870
:100FDA00851A3A75330122E51AB43D03020DEB7FF7
:100FEA000112131E12128D7FC81212B61212F222A9
:1010860078087C007D007BFF7A1279287E007F102D
:10109600120CB7E4F518AF187401A807088002C34C
:1010A60033D8FCF4F590E4F519E5192404FF74012E
:1010B6007E00A807088005C333CE33CED8F9FFAD2E
:1010C60090EF5D70317F201212B6E5192404FF748B
:1010D600017E00A807088005C333CE33CED8F9FFBA
:1010E600AD90EF5D60E4E51825E025E024082519BC
:1010F600F8E6FF020F1A0519E519C3940440AA057C
:0811060018E518C39404408EA3
:01110E0022BE
:101238007590F01212D97BFF7A12790F1212937FF0
:10124800C012131E7BFF7A1279171212937FC812ED
:0C12580012B67F0112131E12108680FBDC
:10080000020BD2E86480F8E933E83360110460F049
:10081000ED33EC337009E8FCE9FDEAFEEBFF22045E
:1008200060DED3EB9FEA9EE99DE8C2E78CF0C2F759
:1008300095F0400CE8CCF8E9CDF9EACEFAEBCFFB25
:10084000120B9D85D0F05804700320D5B3E80470D6
:10085000075002B2D5020BDC92D5EC0460F7E4CC71
:10086000C0E0C398F8603B94186008400DD0E0FBEE
:10087000020BB4E4FBFAC9FC8028E830E406E4C9C2
:10088000FBE4CAFCE830E305E4C9CACBFCE8540742
:100890006010F8C3E913F9EA13FAEB13FBEC13FC4D
:1008A000D8F130F52FC3E49CFCEF9BFFEE9AFEEDF0
:1008B00099FDD0E0FBEF4E4D4C701222DB03020B92
:1008C000D9EC2CFCEF33FFEE33FEED33FDED30E7DA
:1008D000EB020BB4EF2BFFEE3AFEED39FDD0E0FB5F
:1008E00050130BBB0003020BDCED13FDEE13FEEF08
:0808F00013FFEC13FC020BB432
:1008F800EC4D6011E8497017ED33EC3304600DE4FA
:10090800FCFFFEFD22E933E8330470F8020BD21233
:100918000B9D58046009E4CC248150062850090234
:100928000BDC284003020BD9C0E0EB4A7044B980C5
:1009380006D0E0FB020BC8EF4E701CBD8008EBFF31
:10094800EAFEE9FD80EBE98DF0A4FEE5F00209E19D
:10095800E9CDF9EAFEEBFFEF89F0A4FCE5F0CE89DA
:10096800F0A42EFFE435F0CD89F0A42DFEE435F097
:100978008067EF4E7005BD80D780C3EF8BF0A4ACC5
:10098800F0EE8BF0A42CFCE435F0F8EF8AF0A42C00
:10099800E5F038FCE433CB8DF0A42CFCE5F03BF813
:1009A800EE8AF0A42CFCE5F038F8E433CF89F0A403
:1009B8002CFCE5F038CF3400CE89F0A42FFFE5F009
:1009C8003EFEE433C98DF0A42EFEE5F039CD8AF061
:1009D800A42FFFE5F03EFEE43DFD33D0E0FB5007D9
:1009E8000BBB000F020BDCEC2CFCEF33FFEE33FEED
:0609F800ED33FD020BB41B
:1009FE00020BDCEC5D046005E859047003020BD2B7
:100A0E00120B9D580460F6EC4860F2EC7004FDFE8B
:100A1E00FF22C860DB2481C85009C39860025006CB
:100A2E00020BD99850CAF582E9294B4A7005AB8260
:100A3E00020BC875F0007C1A7880C3EF9BEE9AED1E
:100A4E0099400DC3EF9BFFEE9AFEED99FDE842F043
:100A5E00DC23ACF0D0E0FFD0E0FED0E0FDAB822096
:100A6E00E7101BEB60BAEC2CFCEF33FFEE33FEED20
:100A7E0033FD020BB4E803F830E705C0F075F00063
:100A8E00EF2FFFEE33FEED33FD40B830E7C280AA04
:100A9E0074F8CC6480CCC86480C8F58204604FC3FF
:100AAE00EB9FF5F0EA9E42F0E99D42F0E89C45F09E
:100ABE00603C501DE5825FFFE582D313CB5BCBF428
:100ACE002B5582FB50280ABA002409B90020088051
:100ADE001DE5825BFBE582D313CF5FCFF4C3132FEB
:100AEE005582FF50090EBE00050DBD00010CC3EB73
:100AFE009FF5F0EA9E42F0E99D42F0E89C45F060D9
:090B0E0007CC4820E701B3EC22FA
:100B1700ED33EC33600A047003BD8004ECB2E7FCEC
:010B270022AB
:100B280075F020800E75F010800575F0087D007E48
:100B3800007F003392D530D503120DDDEC33401021
:100B4800EF33FFEE33FEED33FDEC33FCD5F0ED2251
:0E0B5800E5F0247EA2D513CC92E7CDCEFF228D
:100B6600EDD2E7CD33EC3392D524814006E4FFFE87
:100B7600FDFC22FCE4CFCECDCC24E0501174FF80E6
:100B8600EDC3CC13CCCD13CDCE13CECF13CF047083
:070B9600F030D5DE020DDD99
:100B9D00E9D2E7C933E833F892D5EDD2E7CD33EC9E
:070BAD0033FC5002B2D52217
:100BB400EC30E7100FBF000C0EBE00080DBD0004A2
:100BC4000BEB6014A2D5EB13FCED92E7FD2274FF4E
:100BD400FCFDFEFF22E480F8A2D574FF13FC7D80A7
:030BE400E480EFBB
:03000000020FFAF2
:0C0FFA00787FE4F6D8FD75813C021041C0
:100BE700E709F608DFFA8046E709F208DFFA803EF0
:100BF70088828C83E709F0A3DFFA8032E309F608DD
:100C0700DFFA8078E309F208DFFA807088828C8344
:100C1700E309F0A3DFFA806489828A83E0A3F608F8
:100C2700DFFA805889828A83E0A3F208DFFA804CD2
:100C370080D280FA80C680D4806980F280338010A9
:100C470080A680EA809A80A880DA80E280CA803312
:100C570089828A83ECFAE493A3C8C582C8CCC5838A
:100C6700CCF0A3C8C582C8CCC583CCDFE9DEE7805A
:100C77000D89828A83E493A3F608DFF9ECFAA9F0D9
:100C8700EDFB2289828A83ECFAE0A3C8C582C8CC2F
:100C9700C583CCF0A3C8C582C8CCC583CCDFEADE48
:100CA700E880DB89828A83E493A3F208DFF980CCAA
:100CB70088F0EF60010E4E60C388F0ED2402B404A3
:100CC7000050B9F582EB2402B4040050AF2323454A
:060CD7008223900C37732C
:100CDD00BB010689828A83E0225002E722BBFE0215
:090CED00E32289828A83E4932248
:100CF600EF8DF0A4A8F0CF8CF0A428CE8DF0A42E12
:020D0600FE22CB
:100D0800BC000BBE0029EF8DF084FFADF022E4CCCF
:100D1800F875F008EF2FFFEE33FEEC33FCEE9DEC98
:100D2800984005FCEE9DFE0FD5F0E9E4CEFD22EDDE
:100D3800F8F5F0EE8420D21CFEADF075F008EF2F28
:100D4800FFED33FD4007985006D5F0F222C398FD19
:050D58000FD5F0EA22B6
:100D5D00C2D5EC30E709B2D5E4C39DFDE49CFCEEB1
:100D6D0030E715B2D5E4C39FFFE49EFE120D08C314
:100D7D00E49DFDE49CFC8003120D0830D507C3E40F
:060D8D009FFFE49EFE2220
:100D9300BB010A89828A83E0F5F0A3E0225006872B
:100DA300F009E71922BBFE07E3F5F009E3192289ED
:0B0DB300828A83E493F5F07401932220
:100DBE00BB010A89828A83F0E5F0A3F0225006F780
:0F0DCE0009A7F01922BBFE06F3E5F009F319227D
:0E0DDD00C3E49FFFE49EFEE49DFDE49CFC2227
:10100600021238E493A3F8E493A34003F68001F2B6
:1010160008DFF48029E493A3F85407240CC8C333EB
:10102600C4540F4420C8834004F456800146F6DFBA
:10103600E4800B0102040810204080901309E47E2E
:10104600019360BCA3FF543F30E509541FFEE493AF
:10105600A360010ECF54C025E060A840B8E493A376
:10106600FAE493A3F8E493A3C8C582C8CAC583CAA1
:10107600F0A3C8C582C8CAC583CADFE9DEE780BE59
:01131D0000CF
:00000001FF
